:020000041000EA
:1000000000B5324B212058609868022188439860DF
:10001000D860186158612E4B002199600221596106
:100020000121F02299502B49196001219960352056
:1000300000F044F80222904214D00621196600F024
:1000400034F8196E01211966002018661A6600F04E
:100050002CF8196E196E196E052000F02FF8012189
:100060000842F9D1002199601B49196000215960AB
:100070001A491B48016001219960EB211966A021F2
:10008000196600F012F800219960164914480160C1
:100090000121996001BC002800D000471248134993
:1000A000086003C880F30888084703B5996A0420EC
:1000B0000142FBD001200142F8D103BD02B5186610
:1000C0001866FFF7F2FF186E186E02BD00000240BE
:1000D000000000180000070000035F00212200005C
:1000E000F4000018222000A00001001008ED00E03C
:1000F00000000000000000000000000074B24E7A12
:1001000000200420F7010010C3010010C5010010F9
:10011000C1010010C1010010C1010010C101001097
:10012000C1010010C1010010C1010010C701001081
:10013000C1010010C1010010C9010010CB01001065
:10014000CD010010CD010010CD010010CD01001037
:10015000CD010010CD010010CD010010CD01001027
:10016000CD010010CD010010CD010010CD01001017
:10017000CD010010CD010010CD010010CD01001007
:10018000CD010010CD010010CD010010CD010010F7
:10019000CD010010CD010010CD010010CD010010E7
:1001A000CD010010CD010010CD010010CD010010D7
:1001B000CD010010CD010010CD010010CD010010C7
:1001C00000BE00BE00BE00BE00BE00BEEFF3058054
:1001D000103800BEF2EB8871149D0010389D00109D
:1001E0003402001090A31AE700201F49086006C8D7
:1001F00081F3088810471D48006800282FD10DA4FE
:100200000ECC002902D000F012F8F9E71849194A7B
:10021000002000E001C19142FCD1174988471749ED
:1002200088471749884700BEFDE701C901C29A42C5
:10023000FBD37047389D0010C0000020140C002034
:100240008CA8001000000420000004208CA80010DE
:10025000001004200010042000000000704709482E
:1002600004F080FD0047000008ED00E0000000D031
:10027000180C00204C100020ED3A0010050300106F
:10028000A93A00105756000006005250ABB3605315
:10029000F89B001006005250861C0302089C0010B8
:1002A000060052505422A29D149C0010050052508A
:1002B000DE65F4688CA80010F8B5C04610B5064C91
:1002C0002378002B07D1054B002B02D0044800E017
:1002D00000BF0123237010BD180D00200000000096
:1002E00000760010044B10B5002B03D003490448DE
:1002F00000E000BF10BDC046000000001C0D002043
:100300000076001010B506F0E5F90A4806F0A6F9E7
:1003100000F034F800F06AF800F0EAF800F052F962
:10032000054801F0BDFC01F07BFB01F09FFB0020C4
:1003300010BDC04600760010B0030020F0B585B0B7
:1003400004001E000AAB1F780F236B441A70002FA5
:1003500002D1002005B0F0BDCDB2012300930F22E1
:100360006A44290006F07EFC002300933B00320023
:100370002900200006F082FCECE7000070B5084977
:10038000084806F043FC084C03258423E550083355
:10039000E5500649064806F039FC6563E56370BD23
:1003A000400D0300A803002000400140A08601008A
:1003B000B003002010B584B00223009303AB0022E9
:1003C00010210848FFF7BAFF6B465B7B1B026A46A9
:1003D000147B1C432100044806F070F9200004B08F
:1003E00010BDC046A80300203C76001010B50D4B90
:1003F00005225A61DA61DA62A4215A5008315A5052
:10040000D0231B0604205862A43959621B325A6259
:10041000802464035C628024A4035C629861996117
:100420009A6110BD00400140F8B500F0E8F8040002
:10043000002720E0D0231B060821996126E0D02365
:100440001B0608229A610520002102F06BFCD025D2
:100450002D0604266E610A20002102F063FCAE61C5
:100460000520002102F05EFC6408E4B202200021B5
:1004700002F058FC0137072F0FDC01231A0022403D
:100480002342D7D0D0231B0608215961002AD6D099
:10049000D0231B0608225A61D5E7F8BD70B5D024D9
:1004A000240680235B03A3612025A561FFF7BCFF21
:1004B000656170BD70B5D024240680235B03636141
:1004C0002025A561FFF7B0FF656170BD70B5D02430
:1004D00024068025AD036561642002F04FFCA56110
:1004E000642002F04BFC6561642002F047FC70BDA3
:1004F00010B5052001F060FCD0242406202363629F
:100500006361142001F058FC80235B036362636124
:10051000152001F051FC80239B036362FFF7D6FF97
:10052000AE20FFF7BBFF0020FFF7B8FF1020FFF75A
:10053000B5FFB020FFF7B2FFDC20FFF7AFFF2020B0
:10054000FFF7ACFF8120FFF7A9FF6F20FFF7A6FFA1
:100550002120FFF7A3FFA120FFF7A0FFC020FFF796
:100560009DFFA420FFF79AFFA620FFF797FFA82082
:10057000FFF794FF7F20FFF791FFD320FFF78EFF57
:100580006020FFF78BFFD520FFF788FF8020FFF763
:1005900085FFD920FFF782FF1D20FFF77FFFDB20BB
:1005A000FFF77CFF3520FFF779FFAD20FFF776FFDF
:1005B0008020FFF773FFC82002F0E0FBAF20FFF7B9
:1005C0006DFF10BD70B5B020FFF768FF002508E093
:1005D0000020FFF76FFF0134A4B20F2CF8D90135CA
:1005E000ADB27F2D0AD80F202840FFF757FF28090A
:1005F0001030C0B2FFF752FF0024EEE770BD430099
:10060000552293435BB2401010400343DBB2980085
:10061000223A904340B29B1013401843C0B20301EA
:1006200000091843C0B2704770B50600B020FFF74C
:1006300035FF00250CE02B01E318F05CFFF7DFFF2E
:10064000FFF738FF0134A4B20F2CF4D90135ADB255
:100650007F2D0AD80F202840FFF720FF28091030EF
:10066000C0B2FFF71BFF0024EEE770BD014B18601E
:100670007047C046340D002070B55F4B9B888342A5
:1006800041D35D4BDB888B423DD35B4BDB89B42B85
:1006900049D03CD8002B08D05A2B37D1564B1B8958
:1006A0005B1A9BB2013B010098B2534B1B8A022B91
:1006B00053D044D8002B07D0012B27D14E4B1B8998
:1006C000181A80B2013880B24B4B1B8983424BD33E
:1006D000494B5B898B4247D3474BDB8A022B47D080
:1006E000042B5ED0102B00D170E0412B0ED14000C6
:1006F000414B5C8A61434118100A1C6860541B68B6
:1007000001315A5402E03D4805F0A8FF70BD87242E
:100710006400A342FAD1384B5B891B1A9BB2013BA0
:10072000080099B2C1E7344C2389181A80B2013805
:1007300080B26389591A89B2013989B2B5E7032BAE
:10074000E4D12D4C2389181A80B2013880B2638914
:10075000591A89B2013989B2B6E7274B5B89591A10
:1007600089B2013989B2AFE7244805F077FFCDE7B8
:10077000C3089BB2204D6C8A614359182B685C18E2
:10078000595C002A06D10723184079330341994365
:100790002170BBE707231840793303410B432370D3
:1007A000B4E78408A4B2144D6B8A5943611803243A
:1007B00022402D686B5C20404000BD340441A343BF
:1007C0005BB2920102411A436A549FE74408A4B203
:1007D000094D6B8A594361182D686B5C0F241440D6
:1007E000012210408000EF32024193435AB22301AC
:1007F00003411A436A5489E7340D00204C760010F7
:10080000F8B5DE4657464E464546E0B581468A462F
:100810001F000AAB1B889B460BAB1B889846324BCC
:100820009B88834213D3304BDB888B420FD3203A13
:10083000FD886A43B988CD0807230B40591E8B41B8
:10084000ED1855433B689C466544002646E0274822
:1008500005F004FFF0BCBB46B246A946A046F8BD71
:10086000297807222240802313410B4212D053469D
:10087000F11889B24B46E01880B25A46FFF7FCFEE9
:1008800008E05346F11889B24B46E01880B2424660
:10089000FFF7F2FE07232340072B18D00134A4B240
:1008A000BB88A34215D9124B9845D9D02978072285
:1008B0002240802313410B42E3D05346F11889B202
:1008C0004B46E01880B25A46FFF7D6FEE2E7013504
:1008D000E4E75B0700D001350136B6B2FB88B342CE
:1008E000B8D90024DCE7C046340D00206C76001037
:1008F000FFFF0000F0B5DE46574680B585B0029098
:10090000039116001C000CAB1B889A460DAB1B888C
:100910009B461B4B9B88834206D3194BDB888B423B
:1009200002D3039F029D1CE0164805F097FE05B018
:10093000C0BCBB46B246F0BDE388FB181049C9886D
:100940008B4201DD039F029D5B460193534600935A
:10095000230039002800FFF753FF0136A3885D19F3
:10096000ADB23278002AE2D0A388EB180449898816
:100970008B42E1DDE388DF19BFB2029DDCE7C046B0
:10098000340D0020A476001010B502280BD00428E6
:1009900015D010281FD0412829D1184BD8821A8988
:1009A00052005A8207E0154BD8821B895A0703D19F
:1009B000DB08124A538210BDDB080133F9E70F4B05
:1009C000D8821B899A0703D19B080C4A5382F2E70D
:1009D0009B080133F9E7094BD8821B89DA0703D456
:1009E0005B08064A5382E6E75B080133F9E70448EF
:1009F00005F034FE034805F031FEDCE7340D00203D
:100A0000E07600100477001070B504AC2588104C17
:100A100000262660206021816281A5810220E0827B
:100A200048070ED1CC080A4844828282C381002440
:100A30000482002B08D0B42B06D0054B9A80D980B5
:100A400005E0CC080134EEE7014B9980DA8070BDF7
:100A5000340D0020F0B52C4BDB8A022B19D0042B6F
:100A600019D0102B30D0412B4BD0F0BD6343D3189D
:100A700025490968C854013292B2234B5B8A9342DC
:100A8000F4D80134A4B2204B9B8AA342EDD90022B2
:100A9000F3E70024F7E70024F5E76B43D3180F21B1
:100AA00008400101184C24680143E154013292B21C
:100AB000154B5B8A9342F0D80135ADB2124B9B8A3D
:100AC000AB42D2D90022F3E70025F7E70135ADB2FA
:100AD0000D4B9B8AAB42C8D900220B4B598A9142DD
:100AE000F4D9530069435B18074E010A0F242140D3
:100AF0003768F954316801330440CC54013292B262
:100B0000EBE70025E4E7C046340D0020F0B5DE46F3
:100B100057464E464546E0B55B4CA544804603919A
:100B2000170004921D00059390AB04CB92461E88DB
:100B300092AB1B88994693AB1B889B460024469436
:100B4000FB22002147A805F05BFC0694FB22002154
:100B500007A805F055FC3800290004F057FC0500F3
:100B60004A4B9B8843451AD3484BDB88039A9342F0
:100B700015D3002E49D004F031FC02000B0004987C
:100B8000059904F08AFB04F071FCF6B23400002CE5
:100B900009D03F4905F033FB013CE4B2F7E73D489B
:100BA00005F05CFD67E005F033FB0700002E10D078
:100BB0000A21380004F002F9303106AB195501342E
:100BC00024B20A21380004F0F9F80700013EF6B219
:100BD000ECE706AB2E221A55013424B20022002382
:100BE000049F3800059E310004F0CAFB00280ED196
:100BF0000026002D27D10A21280004F0DFF830312B
:100C000006AB1955013424B21DE00024E6E7380094
:100C100080231B069C466644310004F0F7FB050068
:100C200046AB2D221A700126E3E70A21280004F0C2
:100C3000C5F8303106AB1955013424B20A21280019
:100C400004F0BCF80500002DEFD108E0631E06AAF1
:100C5000D25C46AB9A55013636B2013C24B2002C28
:100C6000F4DC5B4601934B460093534646AA039936
:100C70004046FFF73FFE87239B009D44F0BCBB46E8
:100C8000B246A946A046F0BDE4FDFFFF340D0020AA
:100C90000000204124770010F0B5CE46474680B5CD
:100CA00083B0804600240094002380228021FFF737
:100CB000ABFE0220FFF768FE4046FFF7D7FC00209E
:100CC000FFF7C8FE01942D4D00952D4B2D4A0021B4
:100CD0000A20FFF70FFE019400952B4B2B4A12219F
:100CE0000020FFF707FE1EE0274DE988A3B29946D2
:100CF0005943233189B200270197204E00962B00DB
:100D0000234A0020FFF7F6FDE9882301214AD21883
:100D10004B465943233189B2019700962B00182086
:100D2000FFF7E8FD0134042CDED91B4B197849B2DA
:100D3000154BDA885143233189B2002501950F4CB8
:100D40000094164A0820FFF7D5FD154E0195009432
:100D50003300144A70210020FFF7CCFD0195009468
:100D60003300114A78210020FFF7C4FD4046FFF709
:100D70005BFC03B0C0BCB946B046F0BDFFFF00004D
:100D800040020020A88A001038020020B48A001017
:100D9000C88A0010A002002045100020CC8A001054
:100DA00048020020D08A0010EC8A0010F0B5C64638
:100DB00000B582B080461B4C217849B21A4DEB88B1
:100DC0005943233189B200260196184F00972B0012
:100DD000174A0820FFF78EFD23785BB201335BB220
:100DE0002370207840B2052104F010F849B2217038
:100DF000217849B2EB885943233189B20196009793
:100E00002B000C4A0820FFF775FD4046FFF70CFC4D
:100E1000207840B20001084B181802B080BCB846D8
:100E2000F0BDC0464510002038020020FFFF000042
:100E3000D48C0010CC8A0010A0020020F0B5C64669
:100E400000B582B080461B4C217849B21A4DEB8820
:100E50005943233189B200260196184F00972B0081
:100E6000174A0820FFF746FD23785BB201335BB2D7
:100E70002370207840B2052103F0C8FF49B22170E9
:100E8000217849B2EB885943233189B20196009702
:100E90002B000C4A0820FFF72DFD4046FFF7C4FB4E
:100EA000207840B20001084B181802B080BCB84648
:100EB000F0BDC0464610002038020020FFFF0000B1
:100EC000D48C0010CC8A001050020020F0B5CE4621
:100ED000474680B583B080460024334B1C70FFF733
:100EE00071FB802212010021404605F089FA01942D
:100EF0002E4D00952E4B2F4A00210A20FFF7FAFCB9
:100F0000019400952C4B2D4A12210020FFF7F2FC92
:100F10001EE0294DE988A3B299465943233189B28D
:100F200000270197214E00962B00254A0020FFF74D
:100F3000E1FCE9882301234AD2184B465943233167
:100F400089B2019700962B001820FFF7D3FC0134DB
:100F5000042CDED9144B197849B2174BDA88514367
:100F6000233189B200250195104C0094164A0820BF
:100F7000FFF7C0FC154E019500943300144A702110
:100F80000020FFF7B7FC019500943300114A782147
:100F90000020FFF7AFFC4046FFF746FB03B0C0BCA4
:100FA000B946B046F0BDC04646100020FFFF000025
:100FB00040020020A88A001038020020B48A0010E5
:100FC000C88A001050020020CC8A0010480200207D
:100FD000D08A0010EC8A0010F0B5DE46574680B586
:100FE00089B083460622002106A805F009FA5D4E65
:100FF000002501955C4C009433005C4A0C210020D4
:10100000FFF778FC019500943300594A1821182005
:10101000FFF770FC019500943300564A18214C20CC
:10102000FFF768FC019500943300534A3C210020EF
:10103000FFF760FC019500943300504A48210020DE
:10104000FFF758FC0195009433004D4A54210020CD
:10105000FFF750FC019500944A4B4B4A7821002041
:10106000FFF748FC02E0642001F088FEFFF7A2F9D8
:10107000824606A800F05AFE3A4D444F00240194DF
:10108000394E00962B003A0024211820FFF732FC3D
:10109000504604F09FF90394029601940095049041
:1010A000059102000B0024211820FFF72FFD019469
:1010B00000962B003A0024214C20FFF71BFC344AF9
:1010C000344B0498059904F0FAF802000B000394DD
:1010D000029602210191009522314C20FFF716FD66
:1010E000019400962B003A0048211520FFF702FCDE
:1010F00002AB1020185E04F071F902000B0003949B
:1011000002960194009548211520FFF7FFFC0194F9
:1011100000962B003A0054211520FFF7EBFB02ABA1
:101120001220185E04F05AF902000B000394029694
:101130000194009554211520FFF7E8FC5846FFF76D
:1011400073FAD0231B065B681B058CD4124805F08C
:10115000B5FAC82001F012FE504609B0C0BCBB462B
:10116000B246F0BD38020020FFFF0000048B0010E3
:10117000108B0010148B00101C8B0010308B001093
:10118000348B001048020020388B00104C8B00106C
:101190007B14AE47E17A3E40588B001030B583B0E7
:1011A00004000D001022002105F02AF9002301930C
:1011B0000B4B00930B4B0C4A00210020FFF79AFBCE
:1011C0002800FFF709FF04F005F920606160074A75
:1011D000074B04F074F8A060E160200003B030BD5C
:1011E000FFFF0000480200206C8B00107B14AE470C
:1011F000E17A3E40D0B582B004000E0010220021FA
:1012000005F0FEF800230193134B0093134B144A8F
:1012100000210020FFF76EFB3000FFF7DDFE04F039
:10122000DDF806000F000F4A0F4B04F066F80200CD
:101230000B003000390004F060F800220B4B04F082
:101240005CF8206061600A4A0A4B04F056F8A0601E
:10125000E160200002B0D0BDFFFF00004802002086
:10126000808B0010182D4454FB2109400000D03F12
:1012700068D608B3BFA2513FF0B5CE46474680B509
:1012800083B004000E001022002105F0B9F8194FB8
:10129000002399460193184D00953B00174A002101
:1012A0000020FFF727FB3000FFF796FE8046FA206C
:1012B000400001F063FD4B46019300953B00104A4E
:1012C00000210020FFF716FB3000FFF785FE4346A4
:1012D0004343180004F082F820606160094A0A4B19
:1012E00004F00BF8A060E160200003B0C0BCB94678
:1012F000B046F0BD48020020FFFF0000948B0010B4
:10130000A48B001068D608B3BFA2513FF0B5D646F3
:101310004F464646C0B586B080460E0010220021DA
:1013200005F06EF80622002104A805F069F80023F4
:1013300001933B4B00933B4B3B4A00210020FFF7BE
:10134000D9FA002417E0651C280004F047F80200D1
:101350000B00002103913248029001913149009124
:1013600000217020FFF7D2FB3000FFF735FE64004C
:1013700004AB1853ECB2022CE5D904AB1E885A8892
:101380009246B0189B889946484404F027F80022FA
:10139000264B03F0B2FF04000D00300004F01EF8ED
:1013A00002000B002000290003F077FF22002B0031
:1013B00003F0A3FF06000F00504604F00FF80200F0
:1013C0000B002000290003F068FF02000B00300032
:1013D000390003F092FF06000F00484603F0FEFFBD
:1013E00002000B002000290003F057FF02000B0051
:1013F0003000390003F081FF04F044F843461860E0
:1014000059600B4A0B4B03F078FF43469860D96054
:10141000404606B0E0BCBA46B146A846F0BDC0465C
:10142000FFFF000048020020B88B00100000E03FE2
:1014300068D608B3BFA2513FF0B589B007000E00CF
:101440001022002104F0DCFF0C22002105A804F08A
:10145000D7FF00230193234B0093234B234A002102
:101460000020FFF747FA002417E0651C280003F06E
:10147000B5FF002303931B4A029201931A4B00937A
:1014800002000B0000217020FFF740FB3000FFF747
:10149000A3FD640005AB18532C00052CE5D905AE5F
:1014A0000022B35E0A22B05E584303F097FF0400A7
:1014B0000D000422B35E0622B05E584303F08EFF97
:1014C00002000B002000290003F0F0FE3860796074
:1014D000074A084B03F011FFB860F960380009B003
:1014E000F0BDC046FFFF000048020020B88B00108E
:1014F00068D608B3BFA2513FF0B589B007000E000F
:101500001022002104F07CFF1022002104A804F026
:1015100077FF00230193234B0093234B234A0021A1
:101520000020FFF7E7F9002417E0651C280003F00E
:1015300055FF002303931B4A029201931A4B009319
:1015400002000B0000217020FFF7E0FA3000FFF7E7
:1015500043FD640004AB18532C00072CE5D904AEFE
:101560000022B35E0E22B05E584303F037FF040042
:101570000D000422B35E0622B05E584303F02EFF36
:1015800002000B002000290003F090FE3860796013
:10159000074A084B03F0B1FEB860F960380009B0A3
:1015A000F0BDC046FFFF000048020020B88B0010CD
:1015B00068D608B3BFA2513FF0B5CE46474680B5C6
:1015C0008BB080460E001022002104F019FF10227B
:1015D000002106A804F014FF002301932F4B009371
:1015E0002F4B304A00210020FFF784F9002417E038
:1015F000651C280003F0F2FE00230393274A0292A1
:101600000193274B009302000B0000217020FFF78D
:101610007DFA3000FFF7E0FC640006AB18532C00A5
:10162000072CE5D906AE0023F75E0222B35E994689
:101630001800784303F0D2FE04000D000422B35ECC
:10164000FB1A0E22B05E4A46801A0A22B75EC01B01
:10165000584303F0C3FE049005910C23F05E7843D9
:1016600003F0BCFE06000F00049A059B2000290031
:1016700003F01CFE32003B0003F018FE43461860E6
:101680005960094A094B03F038FE43469860D96017
:1016900040460BB0C0BCB946B046F0BDFFFF0000ED
:1016A00048020020B88B001068D608B3BFA2513F93
:1016B000F0B5CE4600B592B007000E001022002112
:1016C00004F09EFE182200210CA804F099FE0023CD
:1016D0000193384B0093384B384A00210020FFF724
:1016E00009F9002417E0651C280003F077FE0023A9
:1016F0000393304A029201932F4B009302000B0098
:1017000000217020FFF702FA3000FFF765FC64004B
:101710000CAB18532C000B2CE5D90CAC0023E05E6D
:101720001623E65E704303F059FE049005910422EF
:10173000A35E99460623E05E4B46584303F04EFEF7
:10174000069007910A21635E0C21605E584303F006
:1017500045FE089009910E21635E1021605E58439A
:1017600003F03CFE04000D004B467343180003F0E9
:1017700035FE0A900B91069A079B0498059903F091
:1017800095FD089A099B03F091FD22002B0003F0C0
:101790008DFD0A9A0B9B03F089FD38607960084A39
:1017A000084B03F0AAFDB860F960380012B080BCA5
:1017B000B946F0BDFFFF000048020020B88B0010C2
:1017C00068D608B3BFA2513FF0B587B005000F003F
:1017D0001022002104F014FE0622002104A804F0C7
:1017E0000FFE002301931E4B00931E4B1E4A002147
:1017F0000020FFF77FF8002417E0661C300003F09C
:10180000EDFD00230393164A02920193154B0093BA
:1018100002000B0000217020FFF778F93800FFF775
:10182000DBFB640004AB18533400022CE5D904AA96
:101830000021535E0221505E18180423D35E4343F7
:10184000D80FC018401003F0C9FD28606960074A2E
:10185000074B03F052FDA860E960280007B0F0BD17
:10186000FFFF000048020020B88B001068D608B3C4
:10187000BFA2513F70B505000C0016001D492000A5
:1018800005F0F6FC00281CD01B49200005F0F0FCF8
:1018900000281BD01949200005F0EAFC00281AD0C6
:1018A0001749200005F0E4FC002819D01549200054
:1018B00005F0DEFC002818D0134804F0FFFE2800D5
:1018C00070BD31002800FFF7B7FDF8E731002800B0
:1018D000FFF712FEF3E731002800FFF76DFEEEE799
:1018E00031002800FFF7E4FEE9E731002800FFF7A8
:1018F0006BFFE4E7D08B0010D88B0010E08B00105A
:10190000E88B0010F08B0010F88B0010F8B5070082
:101910000E000800FFF7DAFA9620400001F02EFAD8
:10192000174D01E0002C15D0D02109064B689B0A09
:1019300001224C68E40A14401A42F3D1C82001F095
:101940001DFA3000FFF77AFA050001000D4804F097
:10195000B5FEE7E7C82001F011FAFEF733FE80225A
:1019600012010021300004F04BFD3000FEF75CFE58
:10197000320029003800FFF77DFF3800F8BDC0466F
:10198000500200200C8C001070B505000C001600F1
:101990001D49200005F06CFC00281CD01B492000CC
:1019A00005F066FC00281BD01949200005F060FCFA
:1019B00000281AD01749200005F05AFC002819D039
:1019C0001549200005F054FC002818D0134804F0F5
:1019D00075FE280070BD31002800FFF7DFFBF8E737
:1019E00031002800FFF706FCF3E731002800FFF77D
:1019F00043FCEEE731002800FFF788FCE9E73100FF
:101A00002800FFF783FFE4E7388C0010448C0010B7
:101A10004C8C0010588C0010648C0010F88B001057
:101A2000F0B5D02109068023DB008B628B610B4D62
:101A300005266E650A4CE36A082043400C221340D9
:101A4000084F3B6080231B018B628B61EE65236B2B
:101A500043401A40044B1A60F0BDC04600400140AC
:101A600000C001402CD0014030D00140F0B5DE462E
:101A700057464E464546E0B589B08020000104F047
:101A8000A5FC051E05D02800FFF706F9734B984604
:101A90005DE0734804F0E2FDF5E7C82001F06EF95F
:101AA0002800FFF783F9804601006E4804F006FE27
:101AB00056E000239A4603936B4B99460293022308
:101AC0009B460193694C0094049A059B18210020C1
:101AD000FFF71CF8534601934B4600932300644ADA
:101AE00018215D20FEF706FF534603934B460293F1
:101AF0005B460193009432003B0024210020FFF755
:101B000005F8534601934B4600932300594A24217C
:101B10004F20FEF7EFFE00230193534B0093564BEB
:101B2000564A78210020FEF7E5FE2800FEF77CFDEE
:101B3000D0231B065B681B05FAD4514804F0BEFD98
:101B4000FA20400001F01AF92800FFF7A5F8D02389
:101B50001B065A685C6880231B011C4053059CD5FA
:101B6000002CF4D1C82001F009F9FEF72BFD8024E8
:101B7000240122000021280004F042FC2800FEF786
:101B800053FD2A00414604A8FFF7FEFEFEF71AFDAA
:101B900022000021280004F033FC069E079F32003B
:101BA0003B004146374804F089FD304C00239A46FB
:101BB00001932D4B994600932300334A0C210020BA
:101BC000FEF798FE534601934B46009323002F4A9D
:101BD00018215D20FEF78EFE534601934B4600937D
:101BE00023002B4A24214F20FEF784FE294940463A
:101BF00005F03EFB002800D05BE7002303934B4633
:101C0000029302239B460193184C0094049A059B6F
:101C10001821FEF77BFF534601934B4600932300A8
:101C20001D4A18217220FEF765FE534603934B466A
:101C300002935B460193009432003B002421002074
:101C4000FEF764FF534601934B4600932300134A6B
:101C500024216420FEF74EFE5DE7C046A00200206E
:101C6000748C00100C8C0010FFFF00003802002064
:101C7000EC8C0010F48C001048020020FC8C00104A
:101C8000108D0010888C0010C08C0010D08C0010BB
:101C9000D88C0010388C0010108B0010E48C0010D1
:101CA00000B585B003AA6B23138000230093023391
:101CB000682104F0D7FF05B000BD70B586B0040000
:101CC0000E000F226A443B2313703A3B00936821B5
:101CD00004F0C8FF00230093063304AA6821200003
:101CE00004F0CCFF002308E05A0004ADAC5C2402F1
:101CF000511C685C2043B0520133022BF4DD06B066
:101D000070BD000010B503F069FB0022044B03F026
:101D1000C5FB044A044B03F0F0FA03F0A7FB10BD27
:101D20000000D040F8C1631ADCA54C4010B5040097
:101D300001001348FFF7C1FF0023E05EFFF7E2FF59
:101D400004F066FA80B2400020800223E05EFFF7D4
:101D5000D9FF04F05DFA80B2400060800423E05EA9
:101D6000FFF7D0FF04F054FA80B24000A0800023B7
:101D7000E15E0223E25E034804F0A0FC10BDC04611
:101D8000B0030020348D001010B58300084A94463B
:101D900063441C6840226240C024144080225201E7
:101DA00013431C60C000034B9C466044416010BD5F
:101DB00004C001400040014010B501238340D022FF
:101DC0001206936293610521FFF7DEFF10BD00004C
:101DD000034B1B6802201840431E9841C0B2704755
:101DE00000C00640EFF3108072B6034B1B68002B57
:101DF000FBD0BFF35F8F70472C0100D0BFF35F8F24
:101E0000024B00221A6080F3108870472C0100D02A
:101E1000F8B506000C001500FFF7E4FFE308F7181B
:101E2000F15C07222240012393400B4205D1DBB233
:101E30000B433B70FFF7E2FFF8BD2100280001F0E3
:101E4000D1FE0000002307E0054A9A189200BFF374
:101E50005F8F0021116001331F2BF5D97047C046F9
:101E600040000034054A1078431CDBB21370172B76
:101E700002D9130010221A707047C046F0020020E9
:101E8000074B9B68103080001950BFF35F8FBFF382
:101E90005F8F044B0021196082F310887047C046A1
:101EA00000ED00E0240100D010B5091A081F0A4B0C
:101EB0009C466144094A914208D8C30706D44010A1
:101EC0004005400D064B184380B210BD054B064A35
:101ED000A321064801F0ECFDFC070000FE0F000006
:101EE00000E0FFFF4C8D0010A08F00107C8D0010D3
:101EF00010B5091A04394C08090B08D14905490DD8
:101F0000064A11430180064B2343438010BD054B15
:101F1000054AAB21054801F0CBFDC04600F0FFFFAC
:101F200000F8FFFFBC8D0010748F00107C8D001036
:101F300001238340034A10681840431E9841C0B2F1
:101F40007047C04600E100E0002904D0034B186050
:101F5000034B18607047034B1860FBE780E200E01A
:101F600000E100E080E100E010B5012383401800AB
:101F7000FFF7EAFF10BD0000024B9B6810308000A5
:101F8000C058704700ED00E070B504000D00EFF39D
:101F9000108672B60C4B1B68002BFBD0BFF35F8F13
:101FA0002000FFF7E9FF094B984201D0A84205D174
:101FB000320029002000FFF763FF70BD044B054A83
:101FC0008621054801F074FD240100D0CD010010E8
:101FD000CC8D0010BC8F00107C8D0010F0B5CE466B
:101FE000474680B583B006000D00EFF3108872B647
:101FF000564B1B68002BFBD0BFF35F8F544B9A6886
:1020000034001034A300D758524B9F4207D0AF4240
:1020100000D198E00197504BFB1A2F2B09D942466B
:1020200039003000FFF72CFF03B0C0BCB946B04602
:10203000F0BD3000FFF77CFF814600213000FFF744
:1020400093FFBFF35F8FEFF30581002901D08C422E
:1020500011D10123019C9C430022A368AB4212D002
:102060000622A256002A0DDB53009B189B0022007B
:10207000394CE418F1E73621384B394AFF313948F9
:1020800001F016FD2200AB4256D106256557002D02
:1020900038DB6B005B199A002F4B9B189A68A26083
:1020A000DA79E27106229A56A2719B795BB2002B13
:1020B0000FDA2D48A0806B005B199B00264AD318CD
:1020C0002A4A11789971157049463000FFF74CFF84
:1020D000A5E7201D6B005B199B001F4A9B181A1D6A
:1020E0009B88D90A1C2907D15B055B15023359006F
:1020F0005118FFF7D9FEDDE71D4B1E4AB1211948E3
:1021000001F0D6FC002912D1002A0ED0FF239371D2
:10211000194B9380154A1378A371184B0E49641A12
:10212000644163431B0D1370CEE70A4FF2E7201D95
:102130001349FFF7DDFEC7E76A21124B084AFF315A
:10214000084801F0B5FC034F69E7C046240100D000
:1021500000ED00E0CD010010F4020020E08E001040
:102160008C8F00107C8D001001BD000047100020F6
:10217000C88E0010AC8F001001BDFFFFAAAA00009E
:102180002E030020148F001070B5012101432E4B47
:10219000CB1A2F2B28D8EFF30583002B2BD0EFF38E
:1021A000108C72B6294A1268002AFBD0BFF35F8FE9
:1021B000274A0400244D641B64416243120D54B24B
:1021C000244A92689B00D2588A421BD00022032ADC
:1021D00032D853009B189B001B49CB189B795BB2EC
:1021E000A3421FD00132F2E7C7211B4B1B4A490013
:1021F0001B4801F05DFC92211A4B184AFF31184828
:1022000001F056FC134A92681749D150174B1A78BF
:1022100082711C70BFF35F8F0C4B00221A608CF32D
:10222000108870BD0D005300991889006918FF26A9
:102230008E710F4A8A80E9E7D1210E4B074A490087
:10224000074801F035FCC046F4020020240100D00C
:10225000AAAA000000ED00E01C8F0010588F0010AB
:102260007C8D0010448F0010CD010010471000201D
:1022700001BDFFFF508F00100022044B02E0044913
:1022800002C30132072AFAD97047C04600E400E0D1
:1022900080808080024B9C466144890001607047C9
:1022A0004000003410B50400FFF7DCFD0100200001
:1022B000FFF7F0FFFF232371BFF35F8F10BD10B551
:1022C0000400FFF7CFFD01002000FFF7E3FFFF232D
:1022D000237100236371BFF35F8F10BD70B50500DC
:1022E0000C00080000F0FEFE0949200000F03EFE50
:1022F000FFF7B8FD074B9C466044800068602C7572
:10230000D0231B061B786B75A400034BE55070BDF2
:102310002126001040000034140E00200A4B1A68D9
:10232000EFF3108172B61368002BFCD0BFF35F8F00
:10233000054B1B68BFF35F8F00221A6081F3108882
:1023400040BF0020002170472810002010B5002950
:1023500022D003681B7B99421ED8174B9C466144D0
:10236000090183689C4661440C684968002A19D0B9
:1023700003681B7B9A4215D883680F4884466244E1
:1023800012019A1810685368020001208B4201D88C
:102390000ED00020C0B210BD084B094A3C210948AC
:1023A00001F086FB054B064A3C21064801F080FB04
:1023B000A242EFD8EDE7C046FFFFFF0F38910010B3
:1023C0009C9300100091001010B500291ED0037BD3
:1023D00099421BD84B005B18033B0468A446634436
:1023E000002919D0002A1DD0914221D0002A25D0E1
:1023F000047BA24222D804685000801803382018B9
:102400008170197800291FD11A7010BD104B114A24
:102410006821114801F04CFB104B114A6F310E48F6
:1024200001F046FB0F4B0E4A70210B4801F040FBB8
:102430000D4B0B4A7121084801F03AFB044B054A49
:102440006821054801F034FB41701A70DDE7C04691
:102450005C9100100894001078910010C491001055
:10246000E4930010D0910010DC91001070B50600CC
:102470000D001400002914D0002A14D0806873685D
:102480009847002806D0220029003000FFF79CFF63
:10249000280007E02A0021003000FFF795FF200008
:1024A00000E0100070BD0800FCE70000F0B583B04C
:1024B0000500009201930AAB1C780BAB1F78002C2F
:1024C00026D003685A7B944207D10123002B19D1EF
:1024D000002C3BD1200003B0F0BD002C0CD01A7BA7
:1024E000944209D81A6863001B19033BD3189B78E0
:1024F000002BEBD00123E9E73E4B3F4A68213F48E0
:1025000001F0D6FA3E4B3F4A67213F4801F0D0FA2E
:1025100003689C7B002CDBD012D01A7B94420FD82E
:1025200062001219033A19688C4662445178997313
:10253000002900D1D9730023937053701370C7E73B
:102540002C4B2D4A68212D4801F0B2FA002C3AD0CC
:102550002B681B7B9C4236D82C4BE3181B01AA68C6
:1025600094466344009A1A60019A5A60089A9A60E5
:10257000099ADA602E68002C2BD030D0337B9C4235
:102580002DD863001B19033B326894466344002234
:102590009A705A701A70717B22003000FFF766FF44
:1025A0007073844200D095E7287D009A019B00F06B
:1025B00025FD061E01D0002F17D00C9B002B00D14B
:1025C00088E71E7086E7124B124A3C210E4801F044
:1025D0006FFA114B114AA521084801F069FA054B21
:1025E000054A6821054801F063FA2868210000F0D7
:1025F0003DFFE2E75C910010089400107891001014
:10260000F49100101494001000910010FFFFFF0FD0
:10261000389100109C930010FC900010F89300106B
:10262000F0B5DE4657464E464546E0B58BB00990BC
:10263000002308938200B54BD658370052E0B44BC4
:10264000B44A3F21B44801F033FAB44BB44A3C21B8
:10265000B44801F02DFA002901D1002869D10021E8
:10266000404600F0F9FEA04219D12A686B68069234
:102670000793AB689846EB689A464346002B14D004
:10268000002C18D03B681B7B9C4214D8631EFA6850
:10269000D35C08931B0218433861002015E0A24B5D
:1026A000A24A8E219F4801F003FAA14B9F4A922132
:1026B0009C4801F0FDF9994B9E4A4121994801F04F
:1026C000F7F900239A46984600207B68BFF35F8F96
:1026D00000221A6086F310884346002B32D100286E
:1026E00000D10CE100F0FEFB02000B1EA7DB002076
:1026F0000021069007917868EFF3108672B60168A2
:102700000029FCD0BFF35F8F396888464C7B002CD2
:10271000D7D09AD0097B8C4297D8874965182D016C
:10272000B9688C46654428686968801A994100290F
:1027300091DD2A686B68099800F060FC00239A46D6
:102740009846C2E7089B1B0223439946514618004E
:10275000C04705000E007A68EFF3108B72B613685D
:1027600059424B41D9B2002BF9D1BFF35F8F002EF4
:102770001EDB002E46DD3B69002B47D04B456DD15B
:1027800000F0B0FB02000B1E6EDB52197341002BF0
:1027900070DB002B72DB0021049101310391029464
:1027A00051460191414600913800FFF77FFE4CE011
:1027B0003B69002BDDD04B4514D1069A079B521B79
:1027C000B341002B14DB002B16DB002104910131F7
:1027D0000391029451460191414600913800FFF760
:1027E00065FE32E0554B514AA1214E4801F060F997
:1027F00001225242524BE6E7454B464A3F214648AA
:1028000001F056F9002E01D1002DB4D13B68002C07
:1028100050D05A7B944237D1012100294AD1DA7B2A
:10282000002A4DD19A7B002A03D1DA7B002A5AD1A3
:102830009C73DC73002C5CD03B681B7B9C4258D89B
:10284000FA68013C135D0133135500233B617A683C
:10285000BFF35F8F13608BF3108843E7374B334A26
:10286000A421304801F024F9294B2A4A3F212A4863
:1028700001F01EF901225242314B8AE7244B254ACE
:102880003F21254801F014F9002C0DD01A7B944209
:102890000AD862001219033A186884466244927892
:1028A000002ABAD00121B8E7264B274A68212748D9
:1028B00001F0FEF8264B274AF621244801F0F8F8EB
:1028C000002A0AD0197B8A4207D851008A18033A95
:1028D00019688C4662445470A4E71A4B1A4A68215E
:1028E0001A4801F0E5F81C4B1A4AFB21174801F081
:1028F000DFF80A4B0F4A41210A4801F0D9F80BB022
:10290000F0BCBB46B246A946A046F0BD140E00205E
:102910002C9000106893001048900010389100101F
:102920009C930010009100101C92001080930010E6
:1029300034920010C0930010FFFFFF0F4092001070
:10294000FFFFFF7F5C910010089400107891001049
:102950007C920010D4930010A092001010B50C4B84
:102960005B68002B04D00A210A48FFF793FC10BDD6
:10297000074C2300084A1021206800F07DFC03204A
:1029800000F0A4FA03212000FFF7A8FCEBE7C04603
:102990003C030020281000204D23001010B5064BEA
:1029A0005B68002B01D0044810BD044B044A5E2133
:1029B000044801F07DF8C0463C030020B4920010AA
:1029C000A893001000910010F0B5DE4657464E4621
:1029D0004546E0B58BB0804616001F00149B9A4612
:1029E000159B994616AB1B789B461F2302AA94465B
:1029F000634400221A702BE0002809D04246126876
:102A0000127B904204D8421E4146C9688A5C41E06C
:102A1000404B414A4121414801F04AF807984CE0B7
:102A2000361BAF41002F07DB002F11DA3C4B3D4A2C
:102A30003F213D4801F03CF8012676423B4FF3E749
:102A4000374B384A3F21384801F032F8002F4FDB2E
:102A500043465A68EFF3108472B6136859424B41EB
:102A6000D9B20791002BF8D1BFF35F8F1F3302AAB1
:102A70009446634404930023039302934B460193CB
:102A80005346009332003B004046FFF70FFD031E04
:102A9000B2D1020041464968BFF35F8F00250D6047
:102AA00084F31088002B29D01F2302A98C4663448D
:102AB0001B78002BB2D112021043002B20D05B46B2
:102AC000002B1DD04946D04704000D0003000B43E6
:102AD0001DD00029A4DB00F005FA06000F1EAFDBB5
:102AE00036196F41002FB1DA012676420F4FADE75C
:102AF0000B4B0C4A3F210C4800F0DAFF012040420A
:102B00000BB0F0BCBB46B246A946A046F0BD079844
:102B1000F6E7C04638910010C093001000910010F5
:102B20002C9000106893001048900010FFFFFF7F6A
:102B3000F8B50400002900D162E04268EFF3108587
:102B400072B6136858424341D8B2002BF9D1BFF393
:102B50005F8FCBB22268567BB3421BD10120002885
:102B600048D0206988422BD0090AC9B2002B2ED048
:102B70002068007B83422AD8581EE668305C884271
:102B80002BD000206368BFF35F8F00221A6085F3AB
:102B90001088F8BD002B0DD0167BB3420AD85E001A
:102BA000F618033E1768BC466644B678002ED6D0A9
:102BB0000120D4E7134B144A6821144800F078FF31
:102BC0002C21134B134AFF31134800F071FF134BB4
:102BD000134A4121104800F06BFF1900100000F06B
:102BE00045FC0028CED199210E4B0A4A49000A48DB
:102BF00000F05EFF23698B42C4D100232361C1E74B
:102C00000020C6E75C910010089400107891001035
:102C1000D8920010509300100091001038910010CD
:102C2000C0930010FC920010F0B587B006000F00B2
:102C3000EFF30583002B1FD106246442E517A41986
:102C40007D418D4202D803D1844201D90024002560
:102C5000002D14DB0494059500F044F902000B1ECE
:102C600013DBA41A9D41002D17DC14D0300039006D
:102C700000F044F907B0F0BD234800F0B3FF234B48
:102C8000234A3F21234800F013FF204B204A3F21D5
:102C9000204800F00DFF002CE8D0FFF77FFE002356
:102CA000029301931C4B0093049A059BFFF78CFE43
:102CB000002818DADAE7002300E00023002BD5D142
:102CC000164B1A68EFF3108172B61368002BFCD014
:102CD000BFF35F8F114B1B68BFF35F8F00221A6039
:102CE00081F3108820BF0499059A0D4B5B6A9A42C4
:102CF000E3D80B48806A884203D29A42DBD0012392
:102D0000DCE70123DAE7C046009300102C900010A6
:102D100068930010489000101D2300102810002018
:102D20000040054070B504000D0000F0DBF8020023
:102D30000B1E0ADB200029008018594100290ADBFC
:102D400000290CDBFFF770FF70BD084B084A3F21DC
:102D5000084800F0ADFE012040420749F0E7034B70
:102D6000034A3F21034800F0A3FEC0462C90001008
:102D70006893001048900010FFFFFF7F10B5FA2203
:102D800092000023002103F0FDF9FFF7CBFF10BDF7
:102D900070B584B005000C00EFF30583002B1ED145
:102DA000FFF7FCFD002302930193224B00932A00BE
:102DB0002300FFF709FE061E23DD20BFFFF7EEFD0F
:102DC0003100FFF7B5FE1C4B5B6A9C422DD81A4AB6
:102DD000926AAA422CD29C4225D0012026E0164BB2
:102DE0005B6A994209D8144A926A824207D2994290
:102DF00001D001201AE0002018E0002016E0012098
:102E000014E00D4B5B6A9C4209D80B4A926AAA42B5
:102E100007D29C4201D0012008E0002006E00020FB
:102E200004E0012002E0002000E0002004B070BDBA
:102E30000120FBE71D2300100040054070B5EFF3B3
:102E400005801038EFF3108C72B61A4B1B68002BFC
:102E5000FBD0BFF35F8F01221300834016494B6301
:102E600016490B60164909780C00C440224214D060
:102E7000114A546A8200134D5259944206D382007B
:102E8000114C125999430E4B197007E00A4A031D61
:102E90009B0099589950002200E00022BFF35F8FF9
:102EA000044B002119608CF31088002A00D0904751
:102EB00070BDC046280100D0004005403C70054070
:102EC000481000202C100020840D002010B50100B7
:102ED000024A0348FEF79CFF10BDC0462C94001028
:102EE00044100020044B5B6A034A906A1900536A3D
:102EF0009942F9D17047C04600400540084B5B6AD3
:102F000001E0074B5B6A8B42FBD301E0044B5B6A39
:102F10008B4203D1024B9B6A8342F7D37047C04672
:102F20000040054070B504000D00FFF7DBFF020014
:102F30000B0020002900801859418B4202D804D18F
:102F4000824202D901204042C117002902DBFFF76B
:102F5000D5FF70BD024B034A3F21034800F0A8FD96
:102F60002C900010D49400104890001070B504000C
:102F70000D00EFF3108672B61B4B1B68002BFBD0C5
:102F8000BFF35F8F002D1CD02000FEF7F5FF174B1D
:102F900083420BD019002000FEF7F6FF012120002C
:102FA000FEF7E2FF0123A340114A1360A400114B76
:102FB000E550BFF35F8F0C4B00221A6086F3108838
:102FC00070BDA2000B4B0021D1500122A2400A4942
:102FD0000B7893430B7005492000FEF7FFFF00219B
:102FE0002000FEF7C1FFE4E7280100D03D2E0010CD
:102FF00038600540840D002048100020F0B5DE4602
:1030000000B584B00400150001921E000293FFF782
:1030100069FF03958E4202D84ED185424CD9EFF319
:10302000108B72B6274B1B68002BFBD0BFF35F8F52
:10303000254A17780125A540EBB23B431370234B7B
:103040005D63221D92000199D150A200204902988F
:1030500050501B6A2B4212D11C4B1B6C2B4208D0C8
:103060000020BFF35F8F174B00221A608BF310888C
:1030700023E0184B184AC521184800F019FDFFF746
:1030800031FF8E4214D802D1039B834210D80E4BDD
:103090001B78BB420ED00D4B1D625D631F200440A8
:1030A0000123A3400E4A1360074B1F701E38D8E758
:1030B0000020D6E70120D4E7012004B080BCBB4645
:1030C000F0BDC046280100D0481000200040054057
:1030D0002C10002050940010B8940010749400102C
:1030E00080E200E0EFF3108C72B60B4B1B68002BF4
:1030F000FBD0BFF35F8F01238340084A1362084966
:103100000A789A430A70BFF35F8F034B00221A605C
:103110008CF310887047C046280100D0004005405D
:103120004810002010B500291ED0037B99421BD8FF
:103130004B005B18033B0468A4466344002919D084
:10314000002A1DD0914221D0002A25D0047BA24222
:1031500022D804685000801803382018817019782C
:1031600000291FD11A7010BD104B114A6821114857
:1031700000F09EFC104B114A6F310E4800F098FC95
:103180000F4B0E4A70210B4800F092FC0D4B0B4A7E
:103190007121084800F08CFC044B054A6821054861
:1031A00000F086FC41701A70DDE7C0465C910010AB
:1031B000D895001078910010C4910010C4950010AB
:1031C000D0910010DC91001070B506000D001400C5
:1031D000002914D0002A14D080687368984700280A
:1031E00006D0220029003000FFF79CFF280007E0EE
:1031F0002A0021003000FFF795FF200000E01000BA
:1032000070BD0800FCE7000010B5002343730133D4
:103210008373037BC3730123027B9A4214D9002B6F
:103220000CD0027B934209D85A00D218033A0168A5
:103230008C4662440133DBB25370EDE70B4B0C4A12
:1032400068210C4800F034FC002A09D0924207D8CB
:10325000016853009A18033A8A180023537010BD6E
:10326000024B034A6821034800F022FC5C910010E5
:10327000D89500107891001010B5017342608360FA
:10328000FFF7C2FF10BD000070B50400081E00D19A
:1032900070BD002934D0237B994231D84B005B1894
:1032A000033B2268944663445A78002AF0D02DD01C
:1032B000237B9A422AD853009B18033B21688C46F3
:1032C00063445D7800215970002825D0237B984203
:1032D00022D843001B18033B21688C46634400211D
:1032E000597001002000FFF76FFF06002900200041
:1032F000FFF7CAFF020031002000FFF765FFC7E7B4
:10330000084B094A6821094800F0D2FB054B064AE0
:103310006821064800F0CCFB024B034A68210348B1
:1033200000F0C6FB5C910010D89500107891001059
:1033300070B505000C00160000292FD034D0037B97
:10334000994231D84B005B18033B026894466344B2
:103350005A78002A2ED19A78002A31D11978FFF7AD
:1033600093FF0300002E0AD0EA7B002A2ED1AA7B0D
:10337000002A03D1EA7B002A3BD1AC73EC73002B0B
:103380003DD1002C4FD02B7B9C424CD82B68610048
:103390000C19033C1C190023637070BD254B264A91
:1033A0003821264800F084FB254B264A6821264810
:1033B00000F07EFB254B204A3A21204800F078FBA4
:1033C000234B1D4A3B211D4800F072FB002A0AD006
:1033D000297B8A4207D851008A18033A29688C460B
:1033E00062445470C3E7164B164A6821164800F031
:1033F0005FFB184B104A4221104800F059FB002B8C
:103400000BD02A7B934208D843001B18033B2A6841
:103410009446634400229A70B3E7094B094A682135
:10342000094800F045FB064B064A6821064800F0B3
:103430003FFBC046EC940010B0950010F4940010CF
:103440005C910010D8950010789100102C95001018
:1034500054950010A092001070B504000A00457B3E
:103460002900FFF765FF6073280070BD70B5040088
:10347000002967D0437B8B420ED0002911D0037BFB
:1034800099420ED84B005B18033B0268D018837832
:10349000002B0CD1002056E00121FFF7DDFF0120B9
:1034A00051E0294B294A6821294800F001FB002BF3
:1034B00020D0227B93421DD85A00D318033B2268A8
:1034C000D2182568EB5C8B421AD0002B1BD0227BD4
:1034D000934218D85A00D318033B2268D218537865
:1034E0008B4216D0002BF0D11A4B1B4A6B211B4884
:1034F00000F0DEFA144B154A6821154800F0D8FA9E
:103500004378137007E0104B104A6821104800F010
:10351000CFFA437853700023837043700122200058
:10352000FFF706FF0200617B814205D02000FFF714
:103530004BFE6073012006E0094B074A71210748E2
:1035400000F0B6FA002070BD5C910010D895001014
:1035500078910010508F001098950010F49400108E
:103560007895001070B5046BE30701D4200070BD9E
:1035700002003032C0239B0113430A4A1A60456A95
:10358000826AAD01AD18AD02062000F0BDF9064912
:1035900001F03CFC0100280001F038FC0021FFF79D
:1035A000C1FCE3E7010300004E0E000070B504000B
:1035B0000E001500FFF7D6FF22002C32E16A4E40C4
:1035C000354080235B0113431D60206370BD000004
:1035D00070B505000C00062000F096F9C00021002F
:1035E00001F014FCC60908D00E4B9E4216D87F236A
:1035F000184001303400460800E001246C62AE62DD
:10360000002200212800FFF7D1FF062000F07CF9FE
:103610008000A101891901F0F9FB70BD0026024C60
:10362000ECE7C046FEFF0000FFFF000010B50539C3
:103630004901013AD2001143002B09D002220A436A
:10364000012B07D0002111436E22FFF7AFFF10BD01
:103650000022F4E70421F6E7002909D00A22064BEC
:103660009C466044434258414000044BC25270475C
:1036700080225200F3E7C0460080FCBF3C100020CF
:1036800070B505000C00062000F03EF9061E27D09C
:10369000164B9D4226D08022D203154B1A60154B43
:1036A0001A60154B9B6811009943FAD1002128003C
:1036B000FFF7D2FF21002800FFF78AFF0600002352
:1036C000012208212800FFF7B1FF2A002C328023B5
:1036D0009B01134310221A60084B2B630323AB6436
:1036E000300070BD80221204D7E7C046008003403E
:1036F00000E0004000F0004000C000400103000076
:10370000F8B5DE4657464E464546E0B505000F0083
:1037100092460A9A934250D31A0E91461E020A9A72
:1037200000233000494601F0AFFB80466C0064196D
:10373000A400304B9C4664446368834200D26060BE
:103740002B1FDBB29B46012B3DD9C0239B0123439A
:10375000802212011A60AB00274A9958002907D02D
:10376000506901F053FB431C5800C0180338FDD2C8
:1037700053465A0123685A40E0231A4080235B01D4
:1037800023431A605A46012A28D980239B012343E8
:10379000802212011A6043466360424600233000D3
:1037A000494601F071FBAD00134B58510120F0BCAC
:1037B000BB46B246A946A046F8BD104B104A33217D
:1037C000104800F075F9012FBFD1C0239B0123439E
:1037D00003221A60A368DB07FCD5C9E7216879409A
:1037E00003220A401A60A2680123BB401342FAD0A8
:1037F000CBE7C046008000409C0D0020E4950010FF
:103800003C960010F895001030B583B00C2000F005
:1038100011F9FEF7DDFA00280DD0002304E099002D
:103820002D4A2E4888500133092BF8D92A4B2C4AAF
:103830005A6203B030BD2B4B00229A6700F002F9A8
:10384000294B01221A60274B5B6C012BFBD1274BC4
:1038500003221A60234B9B6B012BFBD10133009396
:103860000433234A0121234800F054F80523009330
:10387000214A0121214800F04DF8214B00930022FC
:1038800002210420FFF73CFF1E4D00952B00002273
:1038900001210520FFF734FF104C00942300002283
:1038A00000210720FFF72CFF0094230000220021B5
:1038B0000820FFF725FF0A4B009323000022002178
:1038C0000920FFF71DFF00952B0000220021062094
:1038D000FFF716FFADE7C0469C0D0020006CDC0230
:1038E0001BB70000008000403CB0004030B00040FA
:1038F000002F685900800240008C864700C00240BB
:10390000001BB700405973078000014BC058704737
:103910009C0D0020F0B5C64600B504000E0017004F
:103920001D00374801F072FA8046364BFA18364BC4
:103930009A4239D80100380001F068FA0200103AC2
:1039400098235B009A4235D86B1E062B38D8069B0D
:10395000013B062B34D83F09474537D32D04069B3E
:103960001A0315432368002B36DB284B9C4244D0B6
:1039700080225201264B1A60264B1A60264B9B6808
:1039800011009943FAD12660A060231DC022920144
:103990001A43212313602368002BFCDAE560082317
:1039A000136080BCB846F0BD1C4B1D4A11211D4858
:1039B00000F07EF81C4B1A4A19211A4800F078F8DA
:1039C0001A4B174A1C21174800F072F8184B144A7A
:1039D0002321144800F06CF822683F231340B342BF
:1039E000C3D1A3681B051B0D8342BED1E368EE2241
:1039F000D2021340AB42B8D1D3E780229201B9E79B
:103A0000001BB70080E84BD380F8A93200C0024009
:103A100000E0004000F0004000C000404C96001064
:103A200070970010AC960010EC96001008970010EC
:103A30005497001080239B000343014AD3627047D0
:103A400000800540064BAA2212011A602F22DA607C
:103A5000044B054A1A60024B5B68002BFBDA704787
:103A6000004002400060024000B0FA0000BEFDE7E6
:103A700003000A4A1268002A08D0084A1068C318CE
:103A8000074A9A4206D3054A13607047034A05491C
:103A90001160F2E701204042F7E7C046100E002017
:103AA000000004204C10002010B5FFF7DFFF0000DD
:103AB00010B582B00C001900002A0CD0084B002A67
:103AC0000BD00192009323000200064802F0F6FD9D
:103AD0000120FFF7CBFF044BF1E7034AF1E7C046B3
:103AE0007C9700108C970010488D001070B52B4B00
:103AF0002B4A1A602B4B2C4A1A602C4B9A682A4B83
:103B00009343FAD12A4C01E008CC9847294B9C42B8
:103B1000FAD3FFF779FE234B274A1A60234B9B68A1
:103B2000DB43DB01FAD1254B40229A675A671A67BB
:103B3000DA66234C09E0234B234A87212348FFF709
:103B4000B7FF2000FEF7AEFB0834214B9C4209D2A0
:103B50002368002BF5D0012BEDD12000FEF7AFFB41
:103B60000834F2E71B4CA1681B4DC022280002F06C
:103B70004DFCA560EFF30583002B00D000BEFEF7DF
:103B800061F9FEF779FBFEF7E9FE144C01E008CC81
:103B90009847134B9C42FAD370BDC04600E00040EA
:103BA000BFCDFBFE00F00040FE7F3C0000C00040A7
:103BB000000C0020100C0020FFFFFF0100F001406E
:103BC000F80B0020BC97001034980010DC97001010
:103BD000000C002000ED00E000000020100C002090
:103BE000140C00200FB400B583B0084802F036FD75
:103BF000049B002B07D005A90191180002F03EFD9F
:103C0000034802F02BFD0120FFF730FF2098001041
:103C100030980010704710B5002802D00B68496832
:103C2000984710BD0100002007E083001B185B00CF
:103C3000501C08601078C01830380A681378303B80
:103C4000DBB2092BF1D97047F0B5DE4657464E4638
:103C50004546E0B583B093461F000C9B9A460D9CE9
:103C60000E9B99460F9B9B0703D0B8460F0006009A
:103C700022E00192A34688464E46B9460700B44268
:103C800007D2551C4B4641462020B84701342A0034
:103C9000F5E73D004F465C46019B9B46B1464646D4
:103CA000B84637002E0007E0013C551C5346185D0E
:103CB00043463900B0472A00002CF5D135003E00BC
:103CC00047460F9B9B0707D4100003B0F0BCBB46D0
:103CD000B246A946A046F0BDB0464E46B9462F00B2
:103CE0005D46531BB342EFD2541C4B464146202045
:103CF000B8472200F5E7F0B5CE46474680B585B017
:103D0000944698460C9D0D9C0EAB1B789946109AD4
:103D1000119B129EB7071CD4002B0CD0F7070AD5B5
:103D20004F46002F02D10C37374204D0013B02E04E
:103D300030272F550134944201D21F2CF8D9F707B0
:103D400007D59C4205D21F2C03D830272F550134AC
:103D5000F5E7F70615D5770505D4002C03D0944276
:103D600024D09C4222D00F9A102A2BD00F9A102ACE
:103D700030D00F9A022A35D01F2C02D830222A5573
:103D800001341F2C05D84A46002A31D02D222A554D
:103D90000134039602930194009543466246FFF76F
:103DA00053FF05B0C0BCB946B046F0BD621E012C41
:103DB00006D00F9F102F01D01400D4E7023CD2E7A9
:103DC0001400D0E7B206D1D41F2CCFD878222A55C0
:103DD0000134D1E7B206CCD51F2CCAD858222A55B7
:103DE0000134C9E71F2CC7D860322A550134C3E714
:103DF000720703D52B222A550134CAE73207C8D5EA
:103E000020222A550134C4E7F0B5DE4657464E4617
:103E10004546E0B593B081468A46089209931CABAB
:103E200010CB1B789B461E9D219B9846002C03D1EE
:103E3000102342469A4390468023DB0046461E40AC
:103E400042461A4212D0002C22D000260EE0303317
:103E5000D9B2771C0AAB99552900200000F0D6FF93
:103E6000AC4216D31F2F14D83E00040029002000B6
:103E700000F0CCFFCBB2092BE9D94246920605D51A
:103E80004121C918C9B20A39C9B2E2E76121F8E78C
:103E9000270043460693209B05931F9B049303959D
:103EA0005B46029301970AAB0093099B089A51461F
:103EB0004846FFF720FF13B0F0BCBB46B246A94608
:103EC000A046F0BDF0B5DE4657464E464546E0B545
:103ED00095B0089009910A920B931E9E1F9C20ABEF
:103EE0001B789B46229B9946239D269B9A4633002E
:103EF000234303D1103352469A4392468023DB007A
:103F000057461F4052461A4219D0330023432DD042
:103F1000002714E03033DAB27B1C98460CABDA553C
:103F20004A462B003000210000F0AEFFA5421FD80A
:103F300019D043461F2B1BD8474606000C004A46A3
:103F40002B003000210000F09FFFD3B2092BE1D9F4
:103F50005246920605D54122D218D2B20A3AD2B2BE
:103F6000DAE76122F8E7B145E3D901E0002398469A
:103F700053460693259B0593249B04934B4603933A
:103F80005B460293434601930CAB00930B9B0A9A4A
:103F900009990898FFF7AFFE15B0F0BCBB46B246D2
:103FA000A946A046F0BD0000F0B5DE4657464E4695
:103FB0004546E0B591B083468A460C9298461A9CD5
:103FC00008941B9D099522002B002000290001F078
:103FD000F2F9002800D0E5E001225242D74B200040
:103FE000290001F0E3F9002800D0DBE00122524271
:103FF000D34B2000290001F0C3F9002800D0D1E004
:1040000000220023089E3000099D290001F0B8F924
:10401000002800D0DDE008980999069007918023D8
:10402000DB001E9A1A400D921E9A1A4201D10623F5
:104030001C930698079904000D000A00060002432D
:1040400000D1D1E0080D4005400DBE4CA4466044AF
:104050000A03120BBC4B13431F0001F0BFF9BB4A0C
:10406000BB4B01F04AF9BB4ABB4B01F01FF90400FE
:104070000D000022B94B3000390001F00EF9B84AAA
:10408000B84B01F03AF902000B002000290001F0C2
:104090000DF901F0BBF9814601F0A0F904000D0013
:1040A000B14AB24B01F029F90022B14B01F0FEF800
:1040B00001F0ACF90600AF4AAF4B2000290001F037
:1040C0001CF904000D00300001F088F9AB4AAC4B3C
:1040D00001F013F902000B002000290001F0DDF8C7
:1040E00004000D0002000B0001F007F90A900B918B
:1040F000A44BF31800261F0522002B0020002900E6
:1041000001F0D4F80E900F9122002B0000208021A6
:10411000C90501F0C2F804000D0000229A4B0A986C
:104120000B9901F0CCF80022984B01F0BFF8020087
:104130000B000A980B9901F0C2F80022944B01F091
:10414000B5F802000B000A980B9901F0B8F80200CC
:104150000B002000290001F0A9F802000B000E98C6
:104160000F9901F0ACF80022774B01F09FF8320074
:104170003B0001F0C2F806000F0004000D00069A93
:10418000079B01F013F9002830D001235B429C46C5
:10419000E14400227D4B3000390001F090F804002A
:1041A0000D0023E01E9B04931D9B03931C9B029315
:1041B000089A099B0092019343460C9A514658462F
:1041C00000F0FCF811B0F0BCBB46B246A946A046D0
:1041D000F0BD0023002406930794069680231B0657
:1041E0009C46654407951AE7002399464B4663337E
:1041F000C62B1ED804261E9B1B0526D52B00234349
:104200000FD0644A644B0698079901F0C7F800285C
:1042100079D00022614B0698079901F0B1F8002887
:1042200071D01C9B4B4506DD4A46981A431E1C93D1
:1042300003E00526DFE700231C938023DB001E9AA2
:104240001A431E920026002399461D9B9E4264D26B
:104250009F1B02231E9A1A400A921E9A134202D0F2
:10426000002E00D000274B46002B07D022002B0049
:104270000698079901F023F8069007910022002381
:104280000898099901F07CF8002848D1444B1E9AFF
:104290001340049303971C9B0293069B079C009377
:1042A000019443460C9A5146584600F087F8002E78
:1042B00000D187E71E9B9B063DD54525441C434600
:1042C000020051462800D8474B46DA179B18534046
:1042D00005220592013E0496002203920A320292C0
:1042E0004A46D00F0190009343462200514658465B
:1042F000FFF78AFD0A9B002B00D163E702005F46AF
:104300000C9E1D9D54E01C9B002B9ED00D9B002BF2
:104310009BD01C9B013B1C9397E7002799E7069CC9
:10432000079D2200290080200006844661440B007E
:1043300006920793AAE76525C0E7C046FFFFEF7F17
:10434000FFFFEFFF01FCFFFF0000F03FFB799F50F4
:104350001344D33FB3C8608B288AC63F0000F83FA0
:1043600061436F63A787D23F71A379094F930A40D6
:104370000000E03F1655B5BBB16B0240EF39FAFEC5
:10438000422EE63FFF03000000002C4000002440C6
:10439000000018402D431CEBE2361A3F80842E416A
:1043A000FFF7FFFF541C434651462020B847220028
:1043B000931BAB42F6D3100004E7C046F0B5DE46CF
:1043C00057464E464546E0B595B006900791934650
:1043D0009946209F1E9A1F9B1000190000F0EBFFCA
:1043E000002831D101225242BF4B1E981F9900F084
:1043F000C7FF002837D101225242BC4B1E981F999B
:1044000000F0D4FF00283DD10022B94B1E981F991F
:1044100000F0CCFF002850D10022B64B1E981F9907
:1044200000F0AEFF002848D1002200231E981F99FB
:1044300000F0A6FF002850D100239846229B5B0580
:1044400000D4B6E0002458E0229B0393219B029302
:1044500003230193A84B00934B465A4607990698AD
:10446000FFF7F2FB0EE1229B0393219B02930423AF
:104470000193A24B00934B465A4607990698FFF7C3
:10448000E3FBFFE00423229A1A4022990B4210D04A
:104490009B4B002A0FD0042222990391219902916B
:1044A000019200934B465A4607990698FFF7CCFBBA
:1044B000E8E0944BEDE70322EEE7229B0493219B77
:1044C000039302971E9B1F9C009301944B465A46F0
:1044D00007990698FFF768FDD4E01E9A1F9B0020FD
:1044E000002100F0DAFE1E901F9101239846A5E7F7
:1044F0000CAB30221A55013F01341F2C01D8092F73
:10450000F6D81E981F9900F081FF050000F066FFA5
:1045100002000B001E981F9900F0BFFEFA007A4BB4
:104520009B181A685B680A920B9300F0E6FE0890ED
:10453000099100F08FFF060000F04CFF02000B0015
:104540000898099900F0A9FE0890099100226F4B84
:1045500000F02CFF00282ED00136300000F03AFF8A
:1045600002000B000A980B9900F010FF002801D000
:1045700001350026002F2CD1280000F02FFF02006B
:104580000B001E981F9900F088FE06000F00002205
:104590005E4B00F0F5FE002846D100225B4B300058
:1045A000390000F003FF00283ED1EB073CD5013570
:1045B0003AE0062746E70022544B0898099900F094
:1045C000DFFE0028D6D1002E01D0F307D2D5013668
:1045D000D0E7AA461F2C11D8013F0A21300000F075
:1045E00015FC651C30310CAB19550A21300000F068
:1045F0000DFC092E0ED906002C00EBE755461F2CAA
:104600000CD87B1E002F09D00CAA302111551F0099
:104610000134F4E72B0055461C00F0E71F2C03D8AB
:104620000CAB2E221A5501341F2C10D80A21280059
:1046300000F0C4FB661C30310CAB19550A21280070
:1046400000F0BCFB051E01D03400EDE7340003236D
:10465000229A1340012B1CD01F2C06D84346002B56
:1046600032D00CAB2D221A550134229B0393219B8F
:10467000029301940CAB00934B465A460799069857
:10468000FFF7E2FA15B0F0BCBB46B246A946A04619
:10469000F0BD219B002B13D04346002B02D10C33DD
:1046A00013420FD0219B013B2193190003E00CAB77
:1046B00030221A5501348C42CED21F2CF7D9CBE7C9
:1046C0002199F8E72199F6E7229B5B0704D50CAB0B
:1046D0002B221A550134C8E7229B1B07C5D50CAB0A
:1046E00020221A550134C0E7FFFFEFFFFFFFEF7FE5
:1046F00065CDCD4165CDCDC15098001054980010C6
:104700004898001044980010409A00100000E03FC4
:10471000F0B5DE4657464E464546E0B593B0824674
:104720008B4690461193002900D1EBE200275546B5
:10473000119B1878002800D1E7E2252809D07C1CBD
:1047400043463A005946A847119B0133119327006D
:10475000EEE7013311930024119A11780B00203BEE
:10476000D8B2102803D88300D048C3589F460B0006
:10477000303BDBB2092B2CD92A292FD000230A93F6
:10478000119B1A782E2A39D000239A46119A137851
:10479000683BD9B2122976D88B00C549CB589F46C1
:1047A00001231C4301321192D6E702231C4301323C
:1047B0001192D1E704231C4301321192CCE7082364
:1047C0001C4301321192C7E710231C43013211929E
:1047D000C2E711A8FFF726FA0A90D1E71C9B1A1D21
:1047E0001C921868002804DB0A90119B0133119376
:1047F000C6E702231C4343420A93F6E78022D20015
:1048000014435A1C11925A781300303BDBB2092B27
:1048100004D92A2A07D000239A46B7E711A8FFF740
:1048200001FA8246B2E71C9B1A1D1C9218680028E8
:1048300004DB8246119B01331193A7E70020F8E7C0
:1048400080235B002343511C119152786C2A01D0C4
:104850001C0018E0C0239B001C430131119112E0A1
:1048600080232343511C11915278682A01D01C00E7
:1048700009E0C0231C430131119104E080235B0057
:104880001C4301321192119B18780300253BDAB2C8
:10489000532A00D92CE29300864AD3589F4680239E
:1048A0009B001C4301321192EDE780235B001C4307
:1048B00001321192E7E7782809D0582838D06F28BC
:1048C00038D0622838D010239C430A2600E01026F6
:1048D000582833D0692803D0642801D00C2294438F
:1048E000630501D50122944369282AD0642828D081
:1048F000A30500D59FE0E30500D5B8E0630600D42A
:10490000CAE01C9A111D1C911168FF220A400594EF
:104910000A9B04935346039302960023019300924B
:1049200043463A0059462800FFF76EFA070027E091
:104930001026CDE70826CBE70226C9E7202214433C
:10494000C8E7A30520D4E30550D4630666D51C9AB6
:10495000111D1C911168FF220A40D317D11859402C
:1049600005940A9B0493534603930296D20F019237
:10497000009143463A0059462800FFF745FA0700E0
:10498000119B01331193D3E61C9BDA1D07218A4347
:10499000110008311C91116853689C46DB170C9379
:1049A0000D930C9A0D9B100048400E9062465340A8
:1049B0000F930E980F990C9A0D9B801A99410E90A7
:1049C0000F9108940A9B079353460693049600237D
:1049D00005936346DA0F02920090019143463A0034
:1049E00059462800FFF76EFA0700C9E71C9A111D07
:1049F0001C911268D317D118594005940A9B04934F
:104A0000534603930296D20F0192009143463A0017
:104A100059462800FFF7F8F90700B1E7230605D546
:104A20001C9A111D1C910023D25E96E71C9A111D41
:104A30001C91126891E71C9BDA1D07218A43110023
:104A400008311C9108940A9B0793534606930496D9
:104A5000002305930293136854680093019443461E
:104A60003A0059462800FFF72DFA070088E71C9AFC
:104A7000111D1C9105940A9B0493534603930296BF
:104A8000002301931368009343463A0059462800D7
:104A9000FFF7BAF9070073E723060DD51C9A111D1D
:104AA0001C9112681204120C31E7C0465C98001089
:104AB000A0980010EC9800101C9A111D1C9112680F
:104AC00025E746281AD01C9B0733072293431A0078
:104AD00008321C9204940A9A0392524602925C682D
:104AE0001B680093019443463A0059462800FFF79B
:104AF00065FC0700119B0133119319E620231C4329
:104B0000E1E7672801D0472802D180231B011C431D
:104B1000452801D0472801D120231C431C9B073383
:104B2000072293431A0008321C9204940A9A0392B3
:104B3000524602925C681B680093019443463A0017
:104B400059462800FFF730FA0700119B01331193F3
:104B5000EEE502231A002240924623421FD0012490
:104B60001C9B1A1D1C927A1C9146187843463A00E9
:104B70005946A8475346002B16D1119B0133119378
:104B80004F46D5E5561C434659462020B8472300DA
:104B900032005C1C9D42F5D83D001700E0E7012380
:104BA0003A002F000A9DF4E74A46A9460A9D06E00E
:104BB000571C434659462020C84734003A00661C1B
:104BC000A542F5D84D469146D7E71C9B1A1D1C926D
:104BD0001B6899465346002B00D1013B4E4601E02D
:104BE000013613003278002A02D05A1E002BF7D16A
:104BF0004B46F21A10928023DB0026001E401C4216
:104C000003D0524501D95346109302231A00224083
:104C10000B92234205D03A0037004C46A946554630
:104C200020E03A00109B5F46B3462E0006E0551C7C
:104C3000434639002020B04723002A005C1C0A9913
:104C40009942F4D835005E46BB46109437004C4676
:104C5000A946554606E01D000134561C43465946F8
:104C6000C84732002078002804D0002FF4D06B1EF3
:104C7000002DF0D117004D460B9B002B03D1119B4B
:104C80000133119354E50A9F109B06E0561C4346DE
:104C900059462020A847230032005C1C9F42F5D8CB
:104CA0001700ECE721231C431C9B1A1D1C921B6858
:104CB000009305940823049353460393102302930F
:104CC0000023019343463A0059462800FFF79CF819
:104CD0000700119B013311932AE57C1C43463A00DF
:104CE00059462520A847119B0133119327001FE542
:104CF0007C1C43463A005946A847119B0133119347
:104D0000270015E50A4B9A4610E5AA46474502D307
:104D100043465A1E00E03A00434659460020D04719
:104D2000380013B0F0BCBB46B246A946A046F0BD61
:104D3000153C001000B585B002900391012100934D
:104D400013004A4202A90248FFF7E2FC05B000BD89
:104D5000173C001001480421014B18477003002044
:104D6000854D001010B5010018231B8814221088EF
:104D7000984710BD10B5010018231B881622108813
:104D8000984710BDF0B5C64600B507000E000025D7
:104D90000123984600E00135B5420AD2AC003C1927
:104DA0002068FFF7DFFF20600028F4D10023984639
:104DB000F1E7404680BCB846F0BD0000124A936F50
:104DC0009B0815D29066D166002905D0FFE7FFE762
:104DD000FFE7516F106F704704B580210906C217B5
:104DE0005140002800D0C84302F0FAFB002104BD66
:104DF000F0B5146E556E576F166FFFF7E3FF14662C
:104E0000556657671667F0BD000000D0114A936FD2
:104E10009B0813D210665166002905D0FFE7FFE713
:104E2000FFE7516F106F704704B5002801D00020D4
:104E3000C04302F0D5FB002104BDC046F0B5146E9E
:104E4000556E576F166FFFF7E5FF14665566576787
:104E50001667F0BD000000D094464A4A926F92084F
:104E6000624601D228E0C046F0B5464E346E756EFB
:104E7000776F366F00F020F89446424A1466556604
:104E8000576716676246F0BD94463E4A926F920895
:104E9000624601D254E0C046F0B53A4E346E756EAB
:104EA000776F366F00F04CF89446364A14665566B4
:104EB000576716676246F0BD002B24DB11D000292E
:104EC0003EDA00B5C943404200D1013100F038F864
:104ED000C943404200D10131DB43524200D101338A
:104EE00000BD002AEBD1002801D1002905D0002007
:104EF000C90FC90701D1C043410800B502F068FBE2
:104F00000022002300BD00B500290ADBDB4352422A
:104F100000D1013300F014F8C943404200D10131FF
:104F200000BDC943404200D10131DB43524200D1B0
:104F3000013300F005F8DB43524200D1013300BDDC
:104F4000002923D1002B18D1002A0CD0BC460D4FCC
:104F500038667A6600210023FFE7FFE7FFE77A6FF4
:104F6000386F67467047002801D00748010000B538
:104F700002F02EFB0022002300BD02000B000020E7
:104F800000217047000000D0FFFFFFFF002B00D082
:104F9000BFE0130C28D1002AE7D080B4114F396646
:104FA0007A66FFE7FFE730B4040C7B6F396F1B04B0
:104FB00023433B667A66FFE7FFE7FFE7C04684B21C
:104FC0007B6F3D6F1B0423433B667A66FFE7FFE779
:104FD000C04600232C042D0C7A6F386F00196941EC
:104FE000B0BC7047000000D0F0B594460025140E08
:104FF00001D112020835140F01D112010435940FAA
:1050000001D192000235D40F01D152000135D40BE9
:105010000134254F7C66254C3C660E0C93B2FFE7AD
:10502000FFE7FFE73C6F6643360C7703BE467343EA
:10503000DF0B5B04C01AB941130C7343DB18C91AA8
:10504000CE086643360CB64493B273431F0F1B0160
:10505000C01AB941130C73431F0B1B05C01AB94189
:10506000860D8F023E436643360C092D24DB520A1F
:105070007243801A7703460A6643360C16235B1B7D
:10508000DE40DF40BF1964466643821B704604352C
:1050900006330100D940A840C01900D30131A24213
:1050A00006D20023F0BD0000000000D0FFFFFFFF8C
:1050B000121B0130F3D3F1E709277F1BFE40644642
:1050C000A2B27243801A00D20139220C7243130C2F
:1050D0001204821A99410B007046043513370100FF
:1050E000F940A840801900D30131002B02D1A2421F
:1050F0000AD2F0BD013000D30131121BFAD2013BBC
:10510000F8D1A24200D2F0BD013000D30131121B10
:10511000F7E7F0B51C0C00D080E00CB400251C0AA9
:1051200004D11B02160E3343120208351C0B04D1A6
:105130001B01160F3343120104359C0B04D19B0055
:10514000960F334392000235DC0B02D192185B417B
:1051500001351C00971864410134464F7C66464C6B
:105160003C660E0CFFE7FFE7FFE7C0463C6F664377
:10517000360C7703BE4697B27743C01B00D2013985
:10518000C01B00D201399FB27743C91BC91B170C42
:1051900077437E04FF0B801BB941CE086643360C73
:1051A0000C2D33DBB644120B1F053A431B0B97B291
:1051B0007743C01B00D201399FB27743C91B170C3C
:1051C00077433E043F0C801BB941860D8F023E435E
:1051D000664329277F1BFE400C3D7746AF40BF1931
:1051E00030BCA2B2ABB272437343801A9941220C15
:1051F0007243130C1204801A994102000B0001370C
:10520000001BA941F9D2781E0021F0BD0C277F1B9D
:10521000FE4077467F0BAF40FF19E0E700245D1C9E
:1052200007D0144F7D663966FFE7FFE7FFE7FFE72A
:105230003C6F95B29EB265436643401BB141150C6D
:105240001E0C6543664336042F0C3E432D04401B61
:10525000B141994204D202000B0020000021F0BDB0
:1052600001D19042F7D3801A994101349942F2D387
:10527000F6E70000000000D0FFFFFFFF44464D4668
:1052800056465F46F0B47047F0BCA046A946B24609
:10529000BB46704748404140484018B41B4B5B68D0
:1052A000FC46019308BD04DFB755001018B4174B36
:1052B0001B68FC46019308BD00DFC15500109446F1
:1052C000134A926F920809D2624618B40F4BDB68FA
:1052D000FC46019308BD0CDF795800100C4AF0B56C
:1052E000146E556E576F166F6246FFF7EEFF084A51
:1052F0001466556657671667F0BD18B4034B9B6874
:10530000FC46019308BD08DF1D570010240E002045
:10531000000000D0FFB550404240504059404B4043
:10532000594000E0FFB5154F4C00640D03D0BC425E
:1053300004D10C0314D80020090D09055C00640D8C
:1053400003D0BC4204D11C030AD800221B0D1B054C
:1053500001264B4009D44B4003D58B4200D18242F9
:10536000FFBD9942FCD19042FFBD0B43DB180343C4
:105370001343F5D0C9434918FFBD0000FF070000E3
:1053800000B5FFF7CFFF804100BDC04600B5FFF775
:10539000C9FF01D9002000BD012000BD00B5FFF705
:1053A000B9FF01D9002000BD012000BD00B5FFF705
:1053B000B1FF804100BD012040054A00121804D809
:1053C0005A00121801D800207047012070470020B1
:1053D000704700000021002805D17047C1174840E0
:1053E000401AFAD0C90713B5064B1B6898470CBC86
:1053F000441CA2401005120B0349091B090519435F
:10540000114310BD240F00201F04000010B54C00F4
:10541000620D8023D218DB00D21A5B057E2A10DDD4
:105420009E3A13DACC170903490819435242D14076
:10543000640001341532202A05DAD0400843604365
:1054400010BD002010BD0846604310BDC80FC01835
:10545000013810BD18B4044B5B6AFC46019308BDCB
:1054600024DF555C00100000240E002018B4044B0B
:10547000DB6FFC46019308BD7CDFED5C0010000093
:10548000240E002018B4044B9B69FC46019308BD10
:1054900018DF455A00100000240E002018B4044BF9
:1054A0009B6DFC46019308BD58DF715F0010000042
:1054B000240E002070B513231C78012C14D0012C6D
:1054C00014DC022C02DC1F4A1F4B9A641F48FFF7B2
:1054D00049FC1F4B186070BD99001A481A4A885041
:1054E00001331F2BF8D9EAE70023FAE71948FFF741
:1054F00041FC05001848FFF73DFC023803789B008B
:105500007F2B19DD802229000F4800F07FFF022C3D
:10551000D7D1124B1A88B5231B029A4209D1104BDE
:105520001A88104B9A4204D10F4B1A880F4B9A429B
:10553000C7D00020FEF756FB0D4B0E4A32210E4815
:10554000FEF7B6FA7D550010240E00204C33000003
:10555000240F00205344000053460000543800003C
:10556000D8380000494600009C3800005946000029
:10557000909A00102C9B0010E49A001007B560462A
:10558000002800D100BE01880A0A0230DF2AFAD1C1
:10559000C9B2820804D3028840880004104300E0A6
:1055A0000068024A5050039007BD0000240E0020FE
:1055B0000FB403BC0CBCF0B50124E407634000E069
:1055C000F0B50C0DCF0F661E3605891B640503D39D
:1055D000C943404200D30131640D03D0661CF60A72
:1055E00007D0E41B00207F00791C89078912803CCA
:1055F00024031D0DDF0F6E1E36059B1B6D0503D3A7
:10560000DB43524200D301336D0D03D06E1CF60A0A
:1056100007D0ED1B00227F007B1C9B079B12803D67
:105620002D032F1B661B58D4A446202E46DA2037A4
:105630001400BC401D00BD40F24033412A43801895
:105640005941CB0F05D0C943C043002264425041A9
:10565000514162464D0D28D10D0D07D100281FD0B4
:10566000241940414941013A0D0DF9D0640006D397
:10567000013000D30131002C01D140084000013A33
:105680000BD4941CE40A04D112051144DB0719441D
:10569000F0BDD907204B194300E0D9070020F0BD29
:1056A0000029DDD1002CDBD1F0BD0132C607400856
:1056B000CD0728434908002EE1D0D9E73C2E29DA4E
:1056C000203E40371400BC4000D00124F240144377
:1056D0001A00BB401C43D317ACE7AC46202F08DAB6
:1056E00020360400B4400D00B540F840394128434D
:1056F000A5E73C2F0CDA203F40360400B44000D030
:105700000124F84004430800B1400C43C117EAE704
:1057100010001900002494E70000F07FF0B50C0D94
:10572000661E3605891BE60A6405640D02D0651CF9
:10573000ED0A04D0002001210905803C2403A44681
:105740001C0D671E3F05DB1BE70A6405640D02D0D4
:10575000651CED0A04D0002201231B05803C2403B4
:105760007740644497B484B296B27443070C7E4386
:10577000150C6F4380B26843361802D30120000431
:105780003F183004350C00197D41844688B29AB226
:1057900050430C0C62431F0C7C438EB27E43921923
:1057A00002D301263604A4191604170C36186741D3
:1057B00001BC81B29AB25143040C62431B0C5C439E
:1057C00080B25843121802D3012000042418100498
:1057D000130C401863412D185E410020474106BC60
:1057E00088B293B258430C0C6343120C544389B2F1
:1057F00051435B1802D301210904641819041A0CDF
:10580000091862416D1856410020474118BCF90241
:10581000720D1143F0026A0D1043ED020A0D03D11F
:105820006D1940414941013B124E9B1B7600B3422A
:105830000ED26D0007D30130002671416646354314
:1058400001D1400840001B05C918E4072144F0BD00
:105850000BDA013306D1013004D101314F0D01D0F3
:105860004908F2E7E1070020F0BD013631050020CC
:10587000EBE70000FF030000F0B51C0D671E3F05BD
:10588000DB1BE70A6405640D02D0661CF60A04D02F
:10589000002201231B05803C2403D0252D06002671
:1058A000F6432E661E096E66CE0FF619B446490001
:1058B0004F0D02D07E1CF60A03D000200021403F8D
:1058C0003F033E1BB600B444013F7F05C91B490896
:1058D0002E6F013676089C02950D25437543ED1316
:1058E0007543AD1301356D10F603761B0CB4CC0275
:1058F000450D2C43A2B2B3B25A43270C7B43350C5F
:105900006F43A4B26C431B1902D3012424043F1932
:105910001C041D0CA4187D4124196D41009A91B2FC
:10592000ACB26143170C7C432B0C5F4392B25A43D9
:10593000A41802D301221204BF182204230C521807
:105940007B41019C6C431B19520ED9010A4344014F
:10595000A01A81B2B2B2514303145A43360C7343B6
:1059600087B27743D617D21900277E4136049B1998
:105970001704160C7F185E417316ED18F30100260C
:1059800080337541A90F06D16400690AE8055B0AF6
:10599000184309D22FE00422944480337541A90AA8
:1059A000A8059B0A184326D3404149412404009A84
:1059B000019B0D005543641B4343E41A95B286B224
:1059C0007543170C7E43030C5F4392B25A43B618DB
:1059D00002D301221204BF183204330C52197B4146
:1059E00052429C41002C02D4002201305141400817
:1059F000CA071043490802B06246D7079210084B05
:105A0000D218084B9A4203D212058918C919F0BD61
:105A10000020002A01DC3900F0BD01331905F5E74B
:105A2000FD030000FE07000007DA002107E0C90FB0
:105A3000C907520D03D0C91201E04C4909050020E5
:105A40007047C0464A00F2D2520D013A484B9A4282
:105A5000EAD2F0B51405091B520801D300184941D8
:105A60009B08D2181205944640A44A0CA25C0B096C
:105A7000534353431B1353435B131202D21A1300B5
:105A80005B435B0B4C086343DB135343DB15013370
:105A90005B10D21A130CD21A13005B438902840DD7
:105AA00021438DB29EB275430F0C7E431B0C5F43A6
:105AB0008CB25C43361902D3012424043F19340408
:105AC000330C64197B419D01A40E2C432034A5B2F4
:105AD0005543241454432D0C6419A411D203121BF2
